{
  "_format": "hh-sol-artifact-1",
  "contractName": "GameNft",
  "sourceName": "contracts/GameNft.sol",
  "abi": [
    {
      "inputs": [],
      "stateMutability": "nonpayable",
      "type": "constructor"
    },
    {
      "anonymous": false,
      "inputs": [
        {
          "indexed": true,
          "internalType": "address",
          "name": "account",
          "type": "address"
        },
        {
          "indexed": true,
          "internalType": "address",
          "name": "operator",
          "type": "address"
        },
        {
          "indexed": false,
          "internalType": "bool",
          "name": "approved",
          "type": "bool"
        }
      ],
      "name": "ApprovalForAll",
      "type": "event"
    },
    {
      "anonymous": false,
      "inputs": [
        {
          "indexed": true,
          "internalType": "address",
          "name": "previousOwner",
          "type": "address"
        },
        {
          "indexed": true,
          "internalType": "address",
          "name": "newOwner",
          "type": "address"
        }
      ],
      "name": "OwnershipTransferred",
      "type": "event"
    },
    {
      "anonymous": false,
      "inputs": [
        {
          "indexed": true,
          "internalType": "address",
          "name": "operator",
          "type": "address"
        },
        {
          "indexed": true,
          "internalType": "address",
          "name": "from",
          "type": "address"
        },
        {
          "indexed": true,
          "internalType": "address",
          "name": "to",
          "type": "address"
        },
        {
          "indexed": false,
          "internalType": "uint256[]",
          "name": "ids",
          "type": "uint256[]"
        },
        {
          "indexed": false,
          "internalType": "uint256[]",
          "name": "values",
          "type": "uint256[]"
        }
      ],
      "name": "TransferBatch",
      "type": "event"
    },
    {
      "anonymous": false,
      "inputs": [
        {
          "indexed": true,
          "internalType": "address",
          "name": "operator",
          "type": "address"
        },
        {
          "indexed": true,
          "internalType": "address",
          "name": "from",
          "type": "address"
        },
        {
          "indexed": true,
          "internalType": "address",
          "name": "to",
          "type": "address"
        },
        {
          "indexed": false,
          "internalType": "uint256",
          "name": "id",
          "type": "uint256"
        },
        {
          "indexed": false,
          "internalType": "uint256",
          "name": "value",
          "type": "uint256"
        }
      ],
      "name": "TransferSingle",
      "type": "event"
    },
    {
      "anonymous": false,
      "inputs": [
        {
          "indexed": false,
          "internalType": "string",
          "name": "value",
          "type": "string"
        },
        {
          "indexed": true,
          "internalType": "uint256",
          "name": "id",
          "type": "uint256"
        }
      ],
      "name": "URI",
      "type": "event"
    },
    {
      "anonymous": false,
      "inputs": [
        {
          "indexed": false,
          "internalType": "address",
          "name": "owner",
          "type": "address"
        },
        {
          "indexed": false,
          "internalType": "address",
          "name": "seller",
          "type": "address"
        },
        {
          "indexed": false,
          "internalType": "uint256",
          "name": "id",
          "type": "uint256"
        },
        {
          "indexed": false,
          "internalType": "uint256",
          "name": "price",
          "type": "uint256"
        }
      ],
      "name": "marketItemCreated",
      "type": "event"
    },
    {
      "inputs": [
        {
          "internalType": "address",
          "name": "account",
          "type": "address"
        },
        {
          "internalType": "uint256",
          "name": "id",
          "type": "uint256"
        }
      ],
      "name": "balanceOf",
      "outputs": [
        {
          "internalType": "uint256",
          "name": "",
          "type": "uint256"
        }
      ],
      "stateMutability": "view",
      "type": "function"
    },
    {
      "inputs": [
        {
          "internalType": "address[]",
          "name": "accounts",
          "type": "address[]"
        },
        {
          "internalType": "uint256[]",
          "name": "ids",
          "type": "uint256[]"
        }
      ],
      "name": "balanceOfBatch",
      "outputs": [
        {
          "internalType": "uint256[]",
          "name": "",
          "type": "uint256[]"
        }
      ],
      "stateMutability": "view",
      "type": "function"
    },
    {
      "inputs": [],
      "name": "conOwner",
      "outputs": [
        {
          "internalType": "address",
          "name": "",
          "type": "address"
        }
      ],
      "stateMutability": "view",
      "type": "function"
    },
    {
      "inputs": [
        {
          "internalType": "uint256",
          "name": "id",
          "type": "uint256"
        }
      ],
      "name": "exists",
      "outputs": [
        {
          "internalType": "bool",
          "name": "",
          "type": "bool"
        }
      ],
      "stateMutability": "view",
      "type": "function"
    },
    {
      "inputs": [],
      "name": "fetchForSaleMarketItems",
      "outputs": [
        {
          "components": [
            {
              "internalType": "address payable",
              "name": "seller",
              "type": "address"
            },
            {
              "internalType": "address payable",
              "name": "owner",
              "type": "address"
            },
            {
              "internalType": "bool",
              "name": "forSale",
              "type": "bool"
            },
            {
              "internalType": "bool",
              "name": "sold",
              "type": "bool"
            },
            {
              "internalType": "uint256",
              "name": "tokenId",
              "type": "uint256"
            },
            {
              "internalType": "uint256",
              "name": "price",
              "type": "uint256"
            },
            {
              "internalType": "string",
              "name": "uri",
              "type": "string"
            }
          ],
          "internalType": "struct GameNft.MarketItem[]",
          "name": "",
          "type": "tuple[]"
        }
      ],
      "stateMutability": "view",
      "type": "function"
    },
    {
      "inputs": [],
      "name": "fetchMy",
      "outputs": [
        {
          "components": [
            {
              "internalType": "address payable",
              "name": "seller",
              "type": "address"
            },
            {
              "internalType": "address payable",
              "name": "owner",
              "type": "address"
            },
            {
              "internalType": "bool",
              "name": "forSale",
              "type": "bool"
            },
            {
              "internalType": "bool",
              "name": "sold",
              "type": "bool"
            },
            {
              "internalType": "uint256",
              "name": "tokenId",
              "type": "uint256"
            },
            {
              "internalType": "uint256",
              "name": "price",
              "type": "uint256"
            },
            {
              "internalType": "string",
              "name": "uri",
              "type": "string"
            }
          ],
          "internalType": "struct GameNft.MarketItem[]",
          "name": "",
          "type": "tuple[]"
        }
      ],
      "stateMutability": "view",
      "type": "function"
    },
    {
      "inputs": [],
      "name": "initialize",
      "outputs": [],
      "stateMutability": "nonpayable",
      "type": "function"
    },
    {
      "inputs": [],
      "name": "ipfsUri",
      "outputs": [
        {
          "internalType": "string",
          "name": "",
          "type": "string"
        }
      ],
      "stateMutability": "view",
      "type": "function"
    },
    {
      "inputs": [
        {
          "internalType": "address",
          "name": "account",
          "type": "address"
        },
        {
          "internalType": "address",
          "name": "operator",
          "type": "address"
        }
      ],
      "name": "isApprovedForAll",
      "outputs": [
        {
          "internalType": "bool",
          "name": "",
          "type": "bool"
        }
      ],
      "stateMutability": "view",
      "type": "function"
    },
    {
      "inputs": [
        {
          "internalType": "uint256",
          "name": "amount",
          "type": "uint256"
        },
        {
          "internalType": "string",
          "name": "tokenUri",
          "type": "string"
        },
        {
          "internalType": "uint256",
          "name": "price",
          "type": "uint256"
        }
      ],
      "name": "mint",
      "outputs": [
        {
          "internalType": "uint256",
          "name": "",
          "type": "uint256"
        }
      ],
      "stateMutability": "nonpayable",
      "type": "function"
    },
    {
      "inputs": [
        {
          "internalType": "address",
          "name": "",
          "type": "address"
        },
        {
          "internalType": "address",
          "name": "",
          "type": "address"
        },
        {
          "internalType": "uint256",
          "name": "",
          "type": "uint256"
        },
        {
          "internalType": "uint256",
          "name": "",
          "type": "uint256"
        },
        {
          "internalType": "bytes",
          "name": "",
          "type": "bytes"
        }
      ],
      "name": "onERC1155Received",
      "outputs": [
        {
          "internalType": "bytes4",
          "name": "",
          "type": "bytes4"
        }
      ],
      "stateMutability": "nonpayable",
      "type": "function"
    },
    {
      "inputs": [],
      "name": "owner",
      "outputs": [
        {
          "internalType": "address",
          "name": "",
          "type": "address"
        }
      ],
      "stateMutability": "view",
      "type": "function"
    },
    {
      "inputs": [
        {
          "internalType": "uint256",
          "name": "id",
          "type": "uint256"
        }
      ],
      "name": "removeItemForSale",
      "outputs": [],
      "stateMutability": "payable",
      "type": "function"
    },
    {
      "inputs": [],
      "name": "renounceOwnership",
      "outputs": [],
      "stateMutability": "nonpayable",
      "type": "function"
    },
    {
      "inputs": [
        {
          "internalType": "address",
          "name": "from",
          "type": "address"
        },
        {
          "internalType": "address",
          "name": "to",
          "type": "address"
        },
        {
          "internalType": "uint256[]",
          "name": "ids",
          "type": "uint256[]"
        },
        {
          "internalType": "uint256[]",
          "name": "amounts",
          "type": "uint256[]"
        },
        {
          "internalType": "bytes",
          "name": "data",
          "type": "bytes"
        }
      ],
      "name": "safeBatchTransferFrom",
      "outputs": [],
      "stateMutability": "nonpayable",
      "type": "function"
    },
    {
      "inputs": [
        {
          "internalType": "address",
          "name": "from",
          "type": "address"
        },
        {
          "internalType": "address",
          "name": "to",
          "type": "address"
        },
        {
          "internalType": "uint256",
          "name": "id",
          "type": "uint256"
        },
        {
          "internalType": "uint256",
          "name": "amount",
          "type": "uint256"
        },
        {
          "internalType": "bytes",
          "name": "data",
          "type": "bytes"
        }
      ],
      "name": "safeTransferFrom",
      "outputs": [],
      "stateMutability": "nonpayable",
      "type": "function"
    },
    {
      "inputs": [
        {
          "internalType": "address",
          "name": "operator",
          "type": "address"
        },
        {
          "internalType": "bool",
          "name": "approved",
          "type": "bool"
        }
      ],
      "name": "setApprovalForAll",
      "outputs": [],
      "stateMutability": "nonpayable",
      "type": "function"
    },
    {
      "inputs": [
        {
          "internalType": "uint256",
          "name": "id",
          "type": "uint256"
        }
      ],
      "name": "setItemForSale",
      "outputs": [],
      "stateMutability": "payable",
      "type": "function"
    },
    {
      "inputs": [
        {
          "internalType": "uint256",
          "name": "tokenId",
          "type": "uint256"
        },
        {
          "internalType": "string",
          "name": "tokenUri",
          "type": "string"
        }
      ],
      "name": "setTokenURI",
      "outputs": [],
      "stateMutability": "nonpayable",
      "type": "function"
    },
    {
      "inputs": [
        {
          "internalType": "bytes4",
          "name": "interfaceId",
          "type": "bytes4"
        }
      ],
      "name": "supportsInterface",
      "outputs": [
        {
          "internalType": "bool",
          "name": "",
          "type": "bool"
        }
      ],
      "stateMutability": "view",
      "type": "function"
    },
    {
      "inputs": [
        {
          "internalType": "uint256",
          "name": "id",
          "type": "uint256"
        }
      ],
      "name": "totalSupply",
      "outputs": [
        {
          "internalType": "uint256",
          "name": "",
          "type": "uint256"
        }
      ],
      "stateMutability": "view",
      "type": "function"
    },
    {
      "inputs": [
        {
          "internalType": "address",
          "name": "newOwner",
          "type": "address"
        }
      ],
      "name": "transferOwnership",
      "outputs": [],
      "stateMutability": "nonpayable",
      "type": "function"
    },
    {
      "inputs": [
        {
          "internalType": "uint256",
          "name": "tokenId",
          "type": "uint256"
        }
      ],
      "name": "uri",
      "outputs": [
        {
          "internalType": "string",
          "name": "",
          "type": "string"
        }
      ],
      "stateMutability": "view",
      "type": "function"
    },
    {
      "inputs": [
        {
          "internalType": "uint256",
          "name": "id",
          "type": "uint256"
        },
        {
          "internalType": "uint256",
          "name": "amount",
          "type": "uint256"
        }
      ],
      "name": "userBuyNft",
      "outputs": [],
      "stateMutability": "payable",
      "type": "function"
    }
  ],
  "bytecode": "0x60806040526040518060600160405280602581526020016200575e6025913960fe908051906020019062000035929190620006c1565b503480156200004357600080fd5b50600160008190555060018054906101000a900460ff166200007657600160009054906101000a900460ff161562000087565b620000866200015160201b60201c565b5b620000c9576040517f08c379a0000000000000000000000000000000000000000000000000000000008152600401620000c090620007bf565b60405180910390fd5b600060018054906101000a900460ff161590508015620001185760018060016101000a81548160ff02191690831515021790555060018060006101000a81548160ff0219169083151502179055505b620001286200016f60201b60201c565b80156200014a5760006001806101000a81548160ff0219169083151502179055505b5062000917565b600062000169306200035460201b62001e4f1760201c565b15905090565b60018054906101000a900460ff166200019957600160009054906101000a900460ff1615620001aa565b620001a96200015160201b60201c565b5b620001ec576040517f08c379a0000000000000000000000000000000000000000000000000000000008152600401620001e390620007bf565b60405180910390fd5b600060018054906101000a900460ff1615905080156200023b5760018060016101000a81548160ff02191690831515021790555060018060006101000a81548160ff0219169083151502179055505b620002de60fe80546200024e9062000814565b80601f01602080910402602001604051908101604052809291908181526020018280546200027c9062000814565b8015620002cd5780601f10620002a157610100808354040283529160200191620002cd565b820191906000526020600020905b815481529060010190602001808311620002af57829003601f168201915b50505050506200036760201b60201c565b620002ee620003eb60201b60201c565b3360fd60006101000a81548173ffffffffffffffffffffffffffffffffffffffff021916908373ffffffffffffffffffffffffffffffffffffffff1602179055508015620003515760006001806101000a81548160ff0219169083151502179055505b50565b600080823b905060008111915050919050565b60018054906101000a900460ff16620003b7576040517f08c379a0000000000000000000000000000000000000000000000000000000008152600401620003ae90620007e1565b60405180910390fd5b620003c76200045d60201b60201c565b620003d7620004af60201b60201c565b620003e8816200050160201b60201c565b50565b60018054906101000a900460ff166200043b576040517f08c379a00000000000000000000000000000000000000000000000000000000081526004016200043290620007e1565b60405180910390fd5b6200044b6200045d60201b60201c565b6200045b6200056560201b60201c565b565b60018054906101000a900460ff16620004ad576040517f08c379a0000000000000000000000000000000000000000000000000000000008152600401620004a490620007e1565b60405180910390fd5b565b60018054906101000a900460ff16620004ff576040517f08c379a0000000000000000000000000000000000000000000000000000000008152600401620004f690620007e1565b60405180910390fd5b565b60018054906101000a900460ff1662000551576040517f08c379a00000000000000000000000000000000000000000000000000000000081526004016200054890620007e1565b60405180910390fd5b6200056281620005d760201b60201c565b50565b60018054906101000a900460ff16620005b5576040517f08c379a0000000000000000000000000000000000000000000000000000000008152600401620005ac90620007e1565b60405180910390fd5b620005d5620005c9620005f360201b60201c565b620005fb60201b60201c565b565b8060689080519060200190620005ef929190620006c1565b5050565b600033905090565b6000609860009054906101000a900473ffffffffffffffffffffffffffffffffffffffff16905081609860006101000a81548173ffffffffffffffffffffffffffffffffffffffff021916908373ffffffffffffffffffffffffffffffffffffffff1602179055508173ffffffffffffffffffffffffffffffffffffffff168173ffffffffffffffffffffffffffffffffffffffff167f8be0079c531659141344cd1fd0a4f28419497f9722a3daafe3b4186f6b6457e060405160405180910390a35050565b828054620006cf9062000814565b90600052602060002090601f016020900481019282620006f357600085556200073f565b82601f106200070e57805160ff19168380011785556200073f565b828001600101855582156200073f579182015b828111156200073e57825182559160200191906001019062000721565b5b5090506200074e919062000752565b5090565b5b808211156200076d57600081600090555060010162000753565b5090565b600062000780602e8362000803565b91506200078d8262000879565b604082019050919050565b6000620007a7602b8362000803565b9150620007b482620008c8565b604082019050919050565b60006020820190508181036000830152620007da8162000771565b9050919050565b60006020820190508181036000830152620007fc8162000798565b9050919050565b600082825260208201905092915050565b600060028204905060018216806200082d57607f821691505b602082108114156200084457620008436200084a565b5b50919050565b7f4e487b7100000000000000000000000000000000000000000000000000000000600052602260045260246000fd5b7f496e697469616c697a61626c653a20636f6e747261637420697320616c72656160008201527f647920696e697469616c697a6564000000000000000000000000000000000000602082015250565b7f496e697469616c697a61626c653a20636f6e7472616374206973206e6f74206960008201527f6e697469616c697a696e67000000000000000000000000000000000000000000602082015250565b614e3780620009276000396000f3fe60806040526004361061014a5760003560e01c80638da5cb5b116100b6578063df262f621161006f578063df262f6214610487578063e985e9c5146104b2578063f23a6e61146104ef578063f242432a1461052c578063f2fde38b14610555578063f567f9741461057e5761014a565b80638da5cb5b1461037257806390c9edf81461039d57806394b5cdec146103b9578063a22cb465146103e4578063acca6b311461040d578063bd85b0391461044a5761014a565b80633c186285116101085780633c186285146102835780634e1273f4146102ae5780634f558e79146102eb578063715018a6146103285780638129fc1c1461033f5780638aa09bca146103565761014a565b8062fdd58e1461014f57806301ffc9a71461018c5780630e89341c146101c9578063162094c4146102065780631ce311e61461022f5780632eb2c2d61461025a575b600080fd5b34801561015b57600080fd5b506101766004803603810190610171919061362f565b61059a565b60405161018391906142a0565b60405180910390f35b34801561019857600080fd5b506101b360048036038101906101ae91906136e7565b610664565b6040516101c09190613fe8565b60405180910390f35b3480156101d557600080fd5b506101f060048036038101906101eb9190613741565b610746565b6040516101fd919061401e565b60405180910390f35b34801561021257600080fd5b5061022d6004803603810190610228919061376e565b6107ec565b005b34801561023b57600080fd5b50610244610819565b6040516102519190613f6d565b60405180910390f35b34801561026657600080fd5b50610281600480360381019061027c9190613489565b610b35565b005b34801561028f57600080fd5b50610298610bd6565b6040516102a59190613df3565b60405180910390f35b3480156102ba57600080fd5b506102d560048036038101906102d0919061366f565b610c00565b6040516102e29190613f8f565b60405180910390f35b3480156102f757600080fd5b50610312600480360381019061030d9190613741565b610d19565b60405161031f9190613fe8565b60405180910390f35b34801561033457600080fd5b5061033d610d2d565b005b34801561034b57600080fd5b50610354610db5565b005b610370600480360381019061036b9190613741565b610f73565b005b34801561037e57600080fd5b506103876110b5565b6040516103949190613df3565b60405180910390f35b6103b760048036038101906103b29190613839565b6110df565b005b3480156103c557600080fd5b506103ce6113e4565b6040516103db919061401e565b60405180910390f35b3480156103f057600080fd5b5061040b600480360381019061040691906135ef565b611472565b005b34801561041957600080fd5b50610434600480360381019061042f91906137ca565b611488565b60405161044191906142a0565b60405180910390f35b34801561045657600080fd5b50610471600480360381019061046c9190613741565b611696565b60405161047e91906142a0565b60405180910390f35b34801561049357600080fd5b5061049c6116b3565b6040516104a99190613f6d565b60405180910390f35b3480156104be57600080fd5b506104d960048036038101906104d49190613449565b611b37565b6040516104e69190613fe8565b60405180910390f35b3480156104fb57600080fd5b5061051660048036038101906105119190613558565b611bcb565b6040516105239190614003565b60405180910390f35b34801561053857600080fd5b50610553600480360381019061054e9190613558565b611be0565b005b34801561056157600080fd5b5061057c6004803603810190610577919061341c565b611c81565b005b61059860048036038101906105939190613741565b611d79565b005b60008073ffffffffffffffffffffffffffffffffffffffff168373ffffffffffffffffffffffffffffffffffffffff16141561060b576040517f08c379a0000000000000000000000000000000000000000000000000000000008152600401610602906140a0565b60405180910390fd5b6066600083815260200190815260200160002060008473ffffffffffffffffffffffffffffffffffffffff1673ffffffffffffffffffffffffffffffffffffffff16815260200190815260200160002054905092915050565b60007fd9b67a26000000000000000000000000000000000000000000000000000000007bffffffffffffffffffffffffffffffffffffffffffffffffffffffff1916827bffffffffffffffffffffffffffffffffffffffffffffffffffffffff1916148061072f57507f0e89341c000000000000000000000000000000000000000000000000000000007bffffffffffffffffffffffffffffffffffffffffffffffffffffffff1916827bffffffffffffffffffffffffffffffffffffffffffffffffffffffff1916145b8061073f575061073e82611e62565b5b9050919050565b60606101006000838152602001908152602001600020805461076790614606565b80601f016020809104026020016040519081016040528092919081815260200182805461079390614606565b80156107e05780601f106107b5576101008083540402835291602001916107e0565b820191906000526020600020905b8154815290600101906020018083116107c357829003601f168201915b50505050509050919050565b8061010060008481526020019081526020016000209080519060200190610814929190613087565b505050565b60606000805b61082960fc611ecc565b81101561088e576001151560ff6000600184610845919061447e565b815260200190815260200160002060010160149054906101000a900460ff161515141561087b57818061087790614669565b9250505b808061088690614669565b91505061081f565b5060008167ffffffffffffffff8111156108ab576108aa61473f565b5b6040519080825280602002602001820160405280156108e457816020015b6108d161310d565b8152602001906001900390816108c95790505b5090506000805b6108f560fc611ecc565b811015610b2b576001151560ff6000600184610911919061447e565b815260200190815260200160002060010160149054906101000a900460ff1615151415610b185760ff6000600183610949919061447e565b81526020019081526020016000206040518060e00160405290816000820160009054906101000a900473ffffffffffffffffffffffffffffffffffffffff1673ffffffffffffffffffffffffffffffffffffffff1673ffffffffffffffffffffffffffffffffffffffff1681526020016001820160009054906101000a900473ffffffffffffffffffffffffffffffffffffffff1673ffffffffffffffffffffffffffffffffffffffff1673ffffffffffffffffffffffffffffffffffffffff1681526020016001820160149054906101000a900460ff161515151581526020016001820160159054906101000a900460ff161515151581526020016002820154815260200160038201548152602001600482018054610a6890614606565b80601f0160208091040260200160405190810160405280929190818152602001828054610a9490614606565b8015610ae15780601f10610ab657610100808354040283529160200191610ae1565b820191906000526020600020905b815481529060010190602001808311610ac457829003601f168201915b505050505081525050838381518110610afd57610afc614710565b5b6020026020010181905250600182610b15919061447e565b91505b8080610b2390614669565b9150506108eb565b5081935050505090565b610b3d611eda565b73ffffffffffffffffffffffffffffffffffffffff168573ffffffffffffffffffffffffffffffffffffffff161480610b835750610b8285610b7d611eda565b611b37565b5b610bc2576040517f08c379a0000000000000000000000000000000000000000000000000000000008152600401610bb990614120565b60405180910390fd5b610bcf8585858585611ee2565b5050505050565b600060fd60009054906101000a900473ffffffffffffffffffffffffffffffffffffffff16905090565b60608151835114610c46576040517f08c379a0000000000000000000000000000000000000000000000000000000008152600401610c3d90614240565b60405180910390fd5b6000835167ffffffffffffffff811115610c6357610c6261473f565b5b604051908082528060200260200182016040528015610c915781602001602082028036833780820191505090505b50905060005b8451811015610d0e57610cde858281518110610cb657610cb5614710565b5b6020026020010151858381518110610cd157610cd0614710565b5b602002602001015161059a565b828281518110610cf157610cf0614710565b5b60200260200101818152505080610d0790614669565b9050610c97565b508091505092915050565b600080610d2583611696565b119050919050565b610d35611eda565b73ffffffffffffffffffffffffffffffffffffffff16610d536110b5565b73ffffffffffffffffffffffffffffffffffffffff1614610da9576040517f08c379a0000000000000000000000000000000000000000000000000000000008152600401610da0906141a0565b60405180910390fd5b610db360006121f9565b565b60018054906101000a900460ff16610ddd57600160009054906101000a900460ff1615610de6565b610de56122bf565b5b610e25576040517f08c379a0000000000000000000000000000000000000000000000000000000008152600401610e1c90614140565b60405180910390fd5b600060018054906101000a900460ff161590508015610e735760018060016101000a81548160ff02191690831515021790555060018060006101000a81548160ff0219169083151502179055505b610f0660fe8054610e8390614606565b80601f0160208091040260200160405190810160405280929190818152602001828054610eaf90614606565b8015610efc5780601f10610ed157610100808354040283529160200191610efc565b820191906000526020600020905b815481529060010190602001808311610edf57829003601f168201915b50505050506122d0565b610f0e612339565b3360fd60006101000a81548173ffffffffffffffffffffffffffffffffffffffff021916908373ffffffffffffffffffffffffffffffffffffffff1602179055508015610f705760006001806101000a81548160ff0219169083151502179055505b50565b3373ffffffffffffffffffffffffffffffffffffffff1660ff600083815260200190815260200160002060000160009054906101000a900473ffffffffffffffffffffffffffffffffffffffff1673ffffffffffffffffffffffffffffffffffffffff16148061104457503373ffffffffffffffffffffffffffffffffffffffff1660ff600083815260200190815260200160002060010160009054906101000a900473ffffffffffffffffffffffffffffffffffffffff1673ffffffffffffffffffffffffffffffffffffffff16145b611083576040517f08c379a000000000000000000000000000000000000000000000000000000000815260040161107a90614200565b60405180910390fd5b600060ff600083815260200190815260200160002060010160146101000a81548160ff02191690831515021790555050565b6000609860009054906101000a900473ffffffffffffffffffffffffffffffffffffffff16905090565b6001151560ff600084815260200190815260200160002060010160149054906101000a900460ff16151514611149576040517f08c379a000000000000000000000000000000000000000000000000000000000815260040161114090614080565b60405180910390fd5b80611154308461059a565b1015611195576040517f08c379a000000000000000000000000000000000000000000000000000000000815260040161118c906141c0565b60405180910390fd5b600060ff6000848152602001908152602001600020600301549050803410156111f3576040517f08c379a00000000000000000000000000000000000000000000000000000000081526004016111ea90614160565b60405180910390fd5b3073ffffffffffffffffffffffffffffffffffffffff1663f242432a303386866040518563ffffffff1660e01b81526004016112329493929190613f15565b600060405180830381600087803b15801561124c57600080fd5b505af1158015611260573d6000803e3d6000fd5b5050505060ff600084815260200190815260200160002060000160009054906101000a900473ffffffffffffffffffffffffffffffffffffffff1673ffffffffffffffffffffffffffffffffffffffff166108fc349081150290604051600060405180830381858888f193505050501580156112e0573d6000803e3d6000fd5b503360ff600085815260200190815260200160002060010160006101000a81548173ffffffffffffffffffffffffffffffffffffffff021916908373ffffffffffffffffffffffffffffffffffffffff1602179055507f11c4f809102968cb61015137590c01ba00ca16014460307eec12a891bc5716b560ff600085815260200190815260200160002060010160009054906101000a900473ffffffffffffffffffffffffffffffffffffffff1660ff600086815260200190815260200160002060000160009054906101000a900473ffffffffffffffffffffffffffffffffffffffff1685846040516113d79493929190613e0e565b60405180910390a1505050565b60fe80546113f190614606565b80601f016020809104026020016040519081016040528092919081815260200182805461141d90614606565b801561146a5780601f1061143f5761010080835404028352916020019161146a565b820191906000526020600020905b81548152906001019060200180831161144d57829003601f168201915b505050505081565b61148461147d611eda565b8383612398565b5050565b600061149460fc612505565b60006114a060fc611ecc565b90506114e33382876040518060400160405280600481526020017f307830300000000000000000000000000000000000000000000000000000000081525061251b565b6114ed81856107ec565b6115093330838860405180602001604052806000815250611be0565b6040518060e001604052803373ffffffffffffffffffffffffffffffffffffffff1681526020013373ffffffffffffffffffffffffffffffffffffffff16815260200160011515815260200160001515815260200182815260200184815260200161157383610746565b81525060ff600083815260200190815260200160002060008201518160000160006101000a81548173ffffffffffffffffffffffffffffffffffffffff021916908373ffffffffffffffffffffffffffffffffffffffff16021790555060208201518160010160006101000a81548173ffffffffffffffffffffffffffffffffffffffff021916908373ffffffffffffffffffffffffffffffffffffffff16021790555060408201518160010160146101000a81548160ff02191690831515021790555060608201518160010160156101000a81548160ff0219169083151502179055506080820151816002015560a0820151816003015560c0820151816004019080519060200190611687929190613087565b50905050809150509392505050565b600060ca6000838152602001908152602001600020549050919050565b60606000806116c260fc611ecc565b905060005b818110156117e0573373ffffffffffffffffffffffffffffffffffffffff1660ff60006001846116f7919061447e565b815260200190815260200160002060000160009054906101000a900473ffffffffffffffffffffffffffffffffffffffff1673ffffffffffffffffffffffffffffffffffffffff1614806117b857503373ffffffffffffffffffffffffffffffffffffffff1660ff600060018461176e919061447e565b815260200190815260200160002060010160009054906101000a900473ffffffffffffffffffffffffffffffffffffffff1673ffffffffffffffffffffffffffffffffffffffff16145b156117cd576001836117ca919061447e565b92505b80806117d890614669565b9150506116c7565b5060008267ffffffffffffffff8111156117fd576117fc61473f565b5b60405190808252806020026020018201604052801561183657816020015b61182361310d565b81526020019060019003908161181b5790505b5090506000805b83811015611b2c573373ffffffffffffffffffffffffffffffffffffffff1660ff600060018461186d919061447e565b815260200190815260200160002060010160009054906101000a900473ffffffffffffffffffffffffffffffffffffffff1673ffffffffffffffffffffffffffffffffffffffff16148061192e57503373ffffffffffffffffffffffffffffffffffffffff1660ff60006001846118e4919061447e565b815260200190815260200160002060000160009054906101000a900473ffffffffffffffffffffffffffffffffffffffff1673ffffffffffffffffffffffffffffffffffffffff16145b15611b1957600060ff6000600184611946919061447e565b81526020019081526020016000209050806040518060e00160405290816000820160009054906101000a900473ffffffffffffffffffffffffffffffffffffffff1673ffffffffffffffffffffffffffffffffffffffff1673ffffffffffffffffffffffffffffffffffffffff1681526020016001820160009054906101000a900473ffffffffffffffffffffffffffffffffffffffff1673ffffffffffffffffffffffffffffffffffffffff1673ffffffffffffffffffffffffffffffffffffffff1681526020016001820160149054906101000a900460ff161515151581526020016001820160159054906101000a900460ff161515151581526020016002820154815260200160038201548152602001600482018054611a6890614606565b80601f0160208091040260200160405190810160405280929190818152602001828054611a9490614606565b8015611ae15780601f10611ab657610100808354040283529160200191611ae1565b820191906000526020600020905b815481529060010190602001808311611ac457829003601f168201915b505050505081525050848481518110611afd57611afc614710565b5b6020026020010181905250600183611b15919061447e565b9250505b8080611b2490614669565b91505061183d565b508194505050505090565b6000606760008473ffffffffffffffffffffffffffffffffffffffff1673ffffffffffffffffffffffffffffffffffffffff16815260200190815260200160002060008373ffffffffffffffffffffffffffffffffffffffff1673ffffffffffffffffffffffffffffffffffffffff16815260200190815260200160002060009054906101000a900460ff16905092915050565b600063f23a6e6160e01b905095945050505050565b611be8611eda565b73ffffffffffffffffffffffffffffffffffffffff168573ffffffffffffffffffffffffffffffffffffffff161480611c2e5750611c2d85611c28611eda565b611b37565b5b611c6d576040517f08c379a0000000000000000000000000000000000000000000000000000000008152600401611c64906140e0565b60405180910390fd5b611c7a85858585856126b2565b5050505050565b611c89611eda565b73ffffffffffffffffffffffffffffffffffffffff16611ca76110b5565b73ffffffffffffffffffffffffffffffffffffffff1614611cfd576040517f08c379a0000000000000000000000000000000000000000000000000000000008152600401611cf4906141a0565b60405180910390fd5b600073ffffffffffffffffffffffffffffffffffffffff168173ffffffffffffffffffffffffffffffffffffffff161415611d6d576040517f08c379a0000000000000000000000000000000000000000000000000000000008152600401611d64906140c0565b60405180910390fd5b611d76816121f9565b50565b3373ffffffffffffffffffffffffffffffffffffffff1660ff600083815260200190815260200160002060000160009054906101000a900473ffffffffffffffffffffffffffffffffffffffff1673ffffffffffffffffffffffffffffffffffffffff1614611e1d576040517f08c379a0000000000000000000000000000000000000000000000000000000008152600401611e1490614200565b60405180910390fd5b600160ff600083815260200190815260200160002060010160146101000a81548160ff02191690831515021790555050565b600080823b905060008111915050919050565b60007f01ffc9a7000000000000000000000000000000000000000000000000000000007bffffffffffffffffffffffffffffffffffffffffffffffffffffffff1916827bffffffffffffffffffffffffffffffffffffffffffffffffffffffff1916149050919050565b600081600001549050919050565b600033905090565b8151835114611f26576040517f08c379a0000000000000000000000000000000000000000000000000000000008152600401611f1d90614260565b60405180910390fd5b600073ffffffffffffffffffffffffffffffffffffffff168473ffffffffffffffffffffffffffffffffffffffff161415611f96576040517f08c379a0000000000000000000000000000000000000000000000000000000008152600401611f8d90614100565b60405180910390fd5b6000611fa0611eda565b9050611fb0818787878787612937565b60005b8451811015612164576000858281518110611fd157611fd0614710565b5b602002602001015190506000858381518110611ff057611fef614710565b5b6020026020010151905060006066600084815260200190815260200160002060008b73ffffffffffffffffffffffffffffffffffffffff1673ffffffffffffffffffffffffffffffffffffffff16815260200190815260200160002054905081811015612092576040517f08c379a000000000000000000000000000000000000000000000000000000000815260040161208990614180565b60405180910390fd5b8181036066600085815260200190815260200160002060008c73ffffffffffffffffffffffffffffffffffffffff1673ffffffffffffffffffffffffffffffffffffffff16815260200190815260200160002081905550816066600085815260200190815260200160002060008b73ffffffffffffffffffffffffffffffffffffffff1673ffffffffffffffffffffffffffffffffffffffff1681526020019081526020016000206000828254612149919061447e565b925050819055505050508061215d90614669565b9050611fb3565b508473ffffffffffffffffffffffffffffffffffffffff168673ffffffffffffffffffffffffffffffffffffffff168273ffffffffffffffffffffffffffffffffffffffff167f4a39dc06d4c0dbc64b70af90fd698a233a518aa5d07e595d983b8c0526c8f7fb87876040516121db929190613fb1565b60405180910390a46121f181878787878761294d565b505050505050565b6000609860009054906101000a900473ffffffffffffffffffffffffffffffffffffffff16905081609860006101000a81548173ffffffffffffffffffffffffffffffffffffffff021916908373ffffffffffffffffffffffffffffffffffffffff1602179055508173ffffffffffffffffffffffffffffffffffffffff168173ffffffffffffffffffffffffffffffffffffffff167f8be0079c531659141344cd1fd0a4f28419497f9722a3daafe3b4186f6b6457e060405160405180910390a35050565b60006122ca30611e4f565b15905090565b60018054906101000a900460ff1661231d576040517f08c379a0000000000000000000000000000000000000000000000000000000008152600401612314906141e0565b60405180910390fd5b612325612b34565b61232d612b83565b61233681612bd2565b50565b60018054906101000a900460ff16612386576040517f08c379a000000000000000000000000000000000000000000000000000000000815260040161237d906141e0565b60405180910390fd5b61238e612b34565b612396612c2b565b565b8173ffffffffffffffffffffffffffffffffffffffff168373ffffffffffffffffffffffffffffffffffffffff161415612407576040517f08c379a00000000000000000000000000000000000000000000000000000000081526004016123fe90614220565b60405180910390fd5b80606760008573ffffffffffffffffffffffffffffffffffffffff1673ffffffffffffffffffffffffffffffffffffffff16815260200190815260200160002060008473ffffffffffffffffffffffffffffffffffffffff1673ffffffffffffffffffffffffffffffffffffffff16815260200190815260200160002060006101000a81548160ff0219169083151502179055508173ffffffffffffffffffffffffffffffffffffffff168373ffffffffffffffffffffffffffffffffffffffff167f17307eab39ab6107e8899845ad3d59bd9653f200f220920489ca2b5937696c31836040516124f89190613fe8565b60405180910390a3505050565b6001816000016000828254019250508190555050565b600073ffffffffffffffffffffffffffffffffffffffff168473ffffffffffffffffffffffffffffffffffffffff16141561258b576040517f08c379a000000000000000000000000000000000000000000000000000000000815260040161258290614280565b60405180910390fd5b6000612595611eda565b90506125b6816000876125a788612c8a565b6125b088612c8a565b87612937565b826066600086815260200190815260200160002060008773ffffffffffffffffffffffffffffffffffffffff1673ffffffffffffffffffffffffffffffffffffffff1681526020019081526020016000206000828254612616919061447e565b925050819055508473ffffffffffffffffffffffffffffffffffffffff16600073ffffffffffffffffffffffffffffffffffffffff168273ffffffffffffffffffffffffffffffffffffffff167fc3d58168c5ae7397731d063d5bbf3d657854427343f4c083240f7aacaa2d0f6287876040516126949291906142bb565b60405180910390a46126ab81600087878787612d04565b5050505050565b600073ffffffffffffffffffffffffffffffffffffffff168473ffffffffffffffffffffffffffffffffffffffff161415612722576040517f08c379a000000000000000000000000000000000000000000000000000000000815260040161271990614100565b60405180910390fd5b600061272c611eda565b905061274c81878761273d88612c8a565b61274688612c8a565b87612937565b60006066600086815260200190815260200160002060008873ffffffffffffffffffffffffffffffffffffffff1673ffffffffffffffffffffffffffffffffffffffff168152602001908152602001600020549050838110156127e4576040517f08c379a00000000000000000000000000000000000000000000000000000000081526004016127db90614180565b60405180910390fd5b8381036066600087815260200190815260200160002060008973ffffffffffffffffffffffffffffffffffffffff1673ffffffffffffffffffffffffffffffffffffffff16815260200190815260200160002081905550836066600087815260200190815260200160002060008873ffffffffffffffffffffffffffffffffffffffff1673ffffffffffffffffffffffffffffffffffffffff168152602001908152602001600020600082825461289b919061447e565b925050819055508573ffffffffffffffffffffffffffffffffffffffff168773ffffffffffffffffffffffffffffffffffffffff168373ffffffffffffffffffffffffffffffffffffffff167fc3d58168c5ae7397731d063d5bbf3d657854427343f4c083240f7aacaa2d0f6288886040516129189291906142bb565b60405180910390a461292e828888888888612d04565b50505050505050565b612945868686868686612eeb565b505050505050565b61296c8473ffffffffffffffffffffffffffffffffffffffff16611e4f565b15612b2c578373ffffffffffffffffffffffffffffffffffffffff1663bc197c8187878686866040518663ffffffff1660e01b81526004016129b2959493929190613e53565b602060405180830381600087803b1580156129cc57600080fd5b505af19250505080156129fd57506040513d601f19601f820116820180604052508101906129fa9190613714565b60015b612aa357612a0961476e565b806308c379a01415612a665750612a1e614d0f565b80612a295750612a68565b806040517f08c379a0000000000000000000000000000000000000000000000000000000008152600401612a5d919061401e565b60405180910390fd5b505b6040517f08c379a0000000000000000000000000000000000000000000000000000000008152600401612a9a90614040565b60405180910390fd5b63bc197c8160e01b7bffffffffffffffffffffffffffffffffffffffffffffffffffffffff1916817bffffffffffffffffffffffffffffffffffffffffffffffffffffffff191614612b2a576040517f08c379a0000000000000000000000000000000000000000000000000000000008152600401612b2190614060565b60405180910390fd5b505b505050505050565b60018054906101000a900460ff16612b81576040517f08c379a0000000000000000000000000000000000000000000000000000000008152600401612b78906141e0565b60405180910390fd5b565b60018054906101000a900460ff16612bd0576040517f08c379a0000000000000000000000000000000000000000000000000000000008152600401612bc7906141e0565b60405180910390fd5b565b60018054906101000a900460ff16612c1f576040517f08c379a0000000000000000000000000000000000000000000000000000000008152600401612c16906141e0565b60405180910390fd5b612c2881613065565b50565b60018054906101000a900460ff16612c78576040517f08c379a0000000000000000000000000000000000000000000000000000000008152600401612c6f906141e0565b60405180910390fd5b612c88612c83611eda565b6121f9565b565b60606000600167ffffffffffffffff811115612ca957612ca861473f565b5b604051908082528060200260200182016040528015612cd75781602001602082028036833780820191505090505b5090508281600081518110612cef57612cee614710565b5b60200260200101818152505080915050919050565b612d238473ffffffffffffffffffffffffffffffffffffffff16611e4f565b15612ee3578373ffffffffffffffffffffffffffffffffffffffff1663f23a6e6187878686866040518663ffffffff1660e01b8152600401612d69959493929190613ebb565b602060405180830381600087803b158015612d8357600080fd5b505af1925050508015612db457506040513d601f19601f82011682018060405250810190612db19190613714565b60015b612e5a57612dc061476e565b806308c379a01415612e1d5750612dd5614d0f565b80612de05750612e1f565b806040517f08c379a0000000000000000000000000000000000000000000000000000000008152600401612e14919061401e565b60405180910390fd5b505b6040517f08c379a0000000000000000000000000000000000000000000000000000000008152600401612e5190614040565b60405180910390fd5b63f23a6e6160e01b7bffffffffffffffffffffffffffffffffffffffffffffffffffffffff1916817bffffffffffffffffffffffffffffffffffffffffffffffffffffffff191614612ee1576040517f08c379a0000000000000000000000000000000000000000000000000000000008152600401612ed890614060565b60405180910390fd5b505b505050505050565b612ef986868686868661307f565b600073ffffffffffffffffffffffffffffffffffffffff168573ffffffffffffffffffffffffffffffffffffffff161415612fab5760005b8351811015612fa957828181518110612f4d57612f4c614710565b5b602002602001015160ca6000868481518110612f6c57612f6b614710565b5b602002602001015181526020019081526020016000206000828254612f91919061447e565b9250508190555080612fa290614669565b9050612f31565b505b600073ffffffffffffffffffffffffffffffffffffffff168473ffffffffffffffffffffffffffffffffffffffff16141561305d5760005b835181101561305b57828181518110612fff57612ffe614710565b5b602002602001015160ca600086848151811061301e5761301d614710565b5b60200260200101518152602001908152602001600020600082825461304391906144d4565b925050819055508061305490614669565b9050612fe3565b505b505050505050565b806068908051906020019061307b929190613087565b5050565b505050505050565b82805461309390614606565b90600052602060002090601f0160209004810192826130b557600085556130fc565b82601f106130ce57805160ff19168380011785556130fc565b828001600101855582156130fc579182015b828111156130fb5782518255916020019190600101906130e0565b5b509050613109919061317a565b5090565b6040518060e00160405280600073ffffffffffffffffffffffffffffffffffffffff168152602001600073ffffffffffffffffffffffffffffffffffffffff1681526020016000151581526020016000151581526020016000815260200160008152602001606081525090565b5b8082111561319357600081600090555060010161317b565b5090565b60006131aa6131a584614309565b6142e4565b905080838252602082019050828560208602820111156131cd576131cc614795565b5b60005b858110156131fd57816131e388826132fb565b8452602084019350602083019250506001810190506131d0565b5050509392505050565b600061321a61321584614335565b6142e4565b9050808382526020820190508285602086028201111561323d5761323c614795565b5b60005b8581101561326d57816132538882613407565b845260208401935060208301925050600181019050613240565b5050509392505050565b600061328a61328584614361565b6142e4565b9050828152602081018484840111156132a6576132a561479a565b5b6132b18482856145c4565b509392505050565b60006132cc6132c784614392565b6142e4565b9050828152602081018484840111156132e8576132e761479a565b5b6132f38482856145c4565b509392505050565b60008135905061330a81614da5565b92915050565b600082601f83011261332557613324614790565b5b8135613335848260208601613197565b91505092915050565b600082601f83011261335357613352614790565b5b8135613363848260208601613207565b91505092915050565b60008135905061337b81614dbc565b92915050565b60008135905061339081614dd3565b92915050565b6000815190506133a581614dd3565b92915050565b600082601f8301126133c0576133bf614790565b5b81356133d0848260208601613277565b91505092915050565b600082601f8301126133ee576133ed614790565b5b81356133fe8482602086016132b9565b91505092915050565b60008135905061341681614dea565b92915050565b600060208284031215613432576134316147a4565b5b6000613440848285016132fb565b91505092915050565b600080604083850312156134605761345f6147a4565b5b600061346e858286016132fb565b925050602061347f858286016132fb565b9150509250929050565b600080600080600060a086880312156134a5576134a46147a4565b5b60006134b3888289016132fb565b95505060206134c4888289016132fb565b945050604086013567ffffffffffffffff8111156134e5576134e461479f565b5b6134f18882890161333e565b935050606086013567ffffffffffffffff8111156135125761351161479f565b5b61351e8882890161333e565b925050608086013567ffffffffffffffff81111561353f5761353e61479f565b5b61354b888289016133ab565b9150509295509295909350565b600080600080600060a08688031215613574576135736147a4565b5b6000613582888289016132fb565b9550506020613593888289016132fb565b94505060406135a488828901613407565b93505060606135b588828901613407565b925050608086013567ffffffffffffffff8111156135d6576135d561479f565b5b6135e2888289016133ab565b9150509295509295909350565b60008060408385031215613606576136056147a4565b5b6000613614858286016132fb565b92505060206136258582860161336c565b9150509250929050565b60008060408385031215613646576136456147a4565b5b6000613654858286016132fb565b925050602061366585828601613407565b9150509250929050565b60008060408385031215613686576136856147a4565b5b600083013567ffffffffffffffff8111156136a4576136a361479f565b5b6136b085828601613310565b925050602083013567ffffffffffffffff8111156136d1576136d061479f565b5b6136dd8582860161333e565b9150509250929050565b6000602082840312156136fd576136fc6147a4565b5b600061370b84828501613381565b91505092915050565b60006020828403121561372a576137296147a4565b5b600061373884828501613396565b91505092915050565b600060208284031215613757576137566147a4565b5b600061376584828501613407565b91505092915050565b60008060408385031215613785576137846147a4565b5b600061379385828601613407565b925050602083013567ffffffffffffffff8111156137b4576137b361479f565b5b6137c0858286016133d9565b9150509250929050565b6000806000606084860312156137e3576137e26147a4565b5b60006137f186828701613407565b935050602084013567ffffffffffffffff8111156138125761381161479f565b5b61381e868287016133d9565b925050604061382f86828701613407565b9150509250925092565b600080604083850312156138505761384f6147a4565b5b600061385e85828601613407565b925050602061386f85828601613407565b9150509250929050565b60006138858383613d39565b905092915050565b60006138998383613dd5565b60208301905092915050565b6138ae8161458e565b82525050565b6138bd8161451a565b82525050565b6138cc81614508565b82525050565b60006138dd826143e3565b6138e78185614429565b9350836020820285016138f9856143c3565b8060005b8581101561393557848403895281516139168582613879565b94506139218361440f565b925060208a019950506001810190506138fd565b50829750879550505050505092915050565b6000613952826143ee565b61395c818561443a565b9350613967836143d3565b8060005b8381101561399857815161397f888261388d565b975061398a8361441c565b92505060018101905061396b565b5085935050505092915050565b6139ae8161452c565b82525050565b6139bd8161452c565b82525050565b6139cc81614538565b82525050565b60006139dd826143f9565b6139e7818561444b565b93506139f78185602086016145d3565b613a00816147a9565b840191505092915050565b6000613a1682614404565b613a20818561445c565b9350613a308185602086016145d3565b613a39816147a9565b840191505092915050565b6000613a4f82614404565b613a59818561446d565b9350613a698185602086016145d3565b613a72816147a9565b840191505092915050565b6000613a8a60348361446d565b9150613a95826147c7565b604082019050919050565b6000613aad60288361446d565b9150613ab882614816565b604082019050919050565b6000613ad060168361446d565b9150613adb82614865565b602082019050919050565b6000613af3602b8361446d565b9150613afe8261488e565b604082019050919050565b6000613b1660268361446d565b9150613b21826148dd565b604082019050919050565b6000613b3960298361446d565b9150613b448261492c565b604082019050919050565b6000613b5c60258361446d565b9150613b678261497b565b604082019050919050565b6000613b7f60328361446d565b9150613b8a826149ca565b604082019050919050565b6000613ba2602e8361446d565b9150613bad82614a19565b604082019050919050565b6000613bc560408361446d565b9150613bd082614a68565b604082019050919050565b6000613be8602a8361446d565b9150613bf382614ab7565b604082019050919050565b6000613c0b60208361446d565b9150613c1682614b06565b602082019050919050565b6000613c2e601c8361446d565b9150613c3982614b2f565b602082019050919050565b6000613c5160008361444b565b9150613c5c82614b58565b600082019050919050565b6000613c74602b8361446d565b9150613c7f82614b5b565b604082019050919050565b6000613c9760138361446d565b9150613ca282614baa565b602082019050919050565b6000613cba60298361446d565b9150613cc582614bd3565b604082019050919050565b6000613cdd60298361446d565b9150613ce882614c22565b604082019050919050565b6000613d0060288361446d565b9150613d0b82614c71565b604082019050919050565b6000613d2360218361446d565b9150613d2e82614cc0565b604082019050919050565b600060e083016000830151613d5160008601826138b4565b506020830151613d6460208601826138b4565b506040830151613d7760408601826139a5565b506060830151613d8a60608601826139a5565b506080830151613d9d6080860182613dd5565b5060a0830151613db060a0860182613dd5565b5060c083015184820360c0860152613dc88282613a0b565b9150508091505092915050565b613dde81614584565b82525050565b613ded81614584565b82525050565b6000602082019050613e0860008301846138c3565b92915050565b6000608082019050613e2360008301876138a5565b613e3060208301866138a5565b613e3d6040830185613de4565b613e4a6060830184613de4565b95945050505050565b600060a082019050613e6860008301886138c3565b613e7560208301876138c3565b8181036040830152613e878186613947565b90508181036060830152613e9b8185613947565b90508181036080830152613eaf81846139d2565b90509695505050505050565b600060a082019050613ed060008301886138c3565b613edd60208301876138c3565b613eea6040830186613de4565b613ef76060830185613de4565b8181036080830152613f0981846139d2565b90509695505050505050565b600060a082019050613f2a60008301876138c3565b613f3760208301866138c3565b613f446040830185613de4565b613f516060830184613de4565b8181036080830152613f6281613c44565b905095945050505050565b60006020820190508181036000830152613f8781846138d2565b905092915050565b60006020820190508181036000830152613fa98184613947565b905092915050565b60006040820190508181036000830152613fcb8185613947565b90508181036020830152613fdf8184613947565b90509392505050565b6000602082019050613ffd60008301846139b4565b92915050565b600060208201905061401860008301846139c3565b92915050565b600060208201905081810360008301526140388184613a44565b905092915050565b6000602082019050818103600083015261405981613a7d565b9050919050565b6000602082019050818103600083015261407981613aa0565b9050919050565b6000602082019050818103600083015261409981613ac3565b9050919050565b600060208201905081810360008301526140b981613ae6565b9050919050565b600060208201905081810360008301526140d981613b09565b9050919050565b600060208201905081810360008301526140f981613b2c565b9050919050565b6000602082019050818103600083015261411981613b4f565b9050919050565b6000602082019050818103600083015261413981613b72565b9050919050565b6000602082019050818103600083015261415981613b95565b9050919050565b6000602082019050818103600083015261417981613bb8565b9050919050565b6000602082019050818103600083015261419981613bdb565b9050919050565b600060208201905081810360008301526141b981613bfe565b9050919050565b600060208201905081810360008301526141d981613c21565b9050919050565b600060208201905081810360008301526141f981613c67565b9050919050565b6000602082019050818103600083015261421981613c8a565b9050919050565b6000602082019050818103600083015261423981613cad565b9050919050565b6000602082019050818103600083015261425981613cd0565b9050919050565b6000602082019050818103600083015261427981613cf3565b9050919050565b6000602082019050818103600083015261429981613d16565b9050919050565b60006020820190506142b56000830184613de4565b92915050565b60006040820190506142d06000830185613de4565b6142dd6020830184613de4565b9392505050565b60006142ee6142ff565b90506142fa8282614638565b919050565b6000604051905090565b600067ffffffffffffffff8211156143245761432361473f565b5b602082029050602081019050919050565b600067ffffffffffffffff8211156143505761434f61473f565b5b602082029050602081019050919050565b600067ffffffffffffffff82111561437c5761437b61473f565b5b614385826147a9565b9050602081019050919050565b600067ffffffffffffffff8211156143ad576143ac61473f565b5b6143b6826147a9565b9050602081019050919050565b6000819050602082019050919050565b6000819050602082019050919050565b600081519050919050565b600081519050919050565b600081519050919050565b600081519050919050565b6000602082019050919050565b6000602082019050919050565b600082825260208201905092915050565b600082825260208201905092915050565b600082825260208201905092915050565b600082825260208201905092915050565b600082825260208201905092915050565b600061448982614584565b915061449483614584565b9250827fffffffffffffffffffffffffffffffffffffffffffffffffffffffffffffffff038211156144c9576144c86146b2565b5b828201905092915050565b60006144df82614584565b91506144ea83614584565b9250828210156144fd576144fc6146b2565b5b828203905092915050565b600061451382614564565b9050919050565b600061452582614564565b9050919050565b60008115159050919050565b60007fffffffff0000000000000000000000000000000000000000000000000000000082169050919050565b600073ffffffffffffffffffffffffffffffffffffffff82169050919050565b6000819050919050565b6000614599826145a0565b9050919050565b60006145ab826145b2565b9050919050565b60006145bd82614564565b9050919050565b82818337600083830152505050565b60005b838110156145f15780820151818401526020810190506145d6565b83811115614600576000848401525b50505050565b6000600282049050600182168061461e57607f821691505b60208210811415614632576146316146e1565b5b50919050565b614641826147a9565b810181811067ffffffffffffffff821117156146605761465f61473f565b5b80604052505050565b600061467482614584565b91507fffffffffffffffffffffffffffffffffffffffffffffffffffffffffffffffff8214156146a7576146a66146b2565b5b600182019050919050565b7f4e487b7100000000000000000000000000000000000000000000000000000000600052601160045260246000fd5b7f4e487b7100000000000000000000000000000000000000000000000000000000600052602260045260246000fd5b7f4e487b7100000000000000000000000000000000000000000000000000000000600052603260045260246000fd5b7f4e487b7100000000000000000000000000000000000000000000000000000000600052604160045260246000fd5b600060033d111561478d5760046000803e61478a6000516147ba565b90505b90565b600080fd5b600080fd5b600080fd5b600080fd5b600080fd5b6000601f19601f8301169050919050565b60008160e01c9050919050565b7f455243313135353a207472616e7366657220746f206e6f6e204552433131353560008201527f526563656976657220696d706c656d656e746572000000000000000000000000602082015250565b7f455243313135353a204552433131353552656365697665722072656a6563746560008201527f6420746f6b656e73000000000000000000000000000000000000000000000000602082015250565b7f4e6f7420666f722073616c65207269676874206e6f7700000000000000000000600082015250565b7f455243313135353a2062616c616e636520717565727920666f7220746865207a60008201527f65726f2061646472657373000000000000000000000000000000000000000000602082015250565b7f4f776e61626c653a206e6577206f776e657220697320746865207a65726f206160008201527f6464726573730000000000000000000000000000000000000000000000000000602082015250565b7f455243313135353a2063616c6c6572206973206e6f74206f776e6572206e6f7260008201527f20617070726f7665640000000000000000000000000000000000000000000000602082015250565b7f455243313135353a207472616e7366657220746f20746865207a65726f20616460008201527f6472657373000000000000000000000000000000000000000000000000000000602082015250565b7f455243313135353a207472616e736665722063616c6c6572206973206e6f742060008201527f6f776e6572206e6f7220617070726f7665640000000000000000000000000000602082015250565b7f496e697469616c697a61626c653a20636f6e747261637420697320616c72656160008201527f647920696e697469616c697a6564000000000000000000000000000000000000602082015250565b7f506c65617365207375626d6974207468652061736b696e67207072696365206960008201527f6e206f7264657220746f20636f6d706c65746520746865207075726368617365602082015250565b7f455243313135353a20696e73756666696369656e742062616c616e636520666f60008201527f72207472616e7366657200000000000000000000000000000000000000000000602082015250565b7f4f776e61626c653a2063616c6c6572206973206e6f7420746865206f776e6572600082015250565b7f4e6f7420656e6f75676820546f6b656e206e6561722073656c6c657200000000600082015250565b50565b7f496e697469616c697a61626c653a20636f6e7472616374206973206e6f74206960008201527f6e697469616c697a696e67000000000000000000000000000000000000000000602082015250565b7f556e617574686f72697365642061636365737300000000000000000000000000600082015250565b7f455243313135353a2073657474696e6720617070726f76616c2073746174757360008201527f20666f722073656c660000000000000000000000000000000000000000000000602082015250565b7f455243313135353a206163636f756e747320616e6420696473206c656e67746860008201527f206d69736d617463680000000000000000000000000000000000000000000000602082015250565b7f455243313135353a2069647320616e6420616d6f756e7473206c656e6774682060008201527f6d69736d61746368000000000000000000000000000000000000000000000000602082015250565b7f455243313135353a206d696e7420746f20746865207a65726f2061646472657360008201527f7300000000000000000000000000000000000000000000000000000000000000602082015250565b600060443d1015614d1f57614da2565b614d276142ff565b60043d036004823e80513d602482011167ffffffffffffffff82111715614d4f575050614da2565b808201805167ffffffffffffffff811115614d6d5750505050614da2565b80602083010160043d038501811115614d8a575050505050614da2565b614d9982602001850186614638565b82955050505050505b90565b614dae81614508565b8114614db957600080fd5b50565b614dc58161452c565b8114614dd057600080fd5b50565b614ddc81614538565b8114614de757600080fd5b50565b614df381614584565b8114614dfe57600080fd5b5056fea2646970667358221220d45b48f84fcdbcc1b427fd99f56da32a95bda27b478072a11c07ae1e6aa670bb64736f6c6343000807003368747470733a2f2f697066732e696e667572612e696f2f697066732f7b69647d2e6a736f6e",
  "linkReferences": {},
  "deployedLinkReferences": {}
}